:100000000C9434000C9440000C943E000C943E0080
:100010000C943E000C943E000C943E000C943E0068
:100020000C943E000C943E000C943E000C943E0058
:100030000C943E000C943E000C943E000C943E0048
:100040000C943E000C943E000C943E000C943E0038
:100050000C943E000C943E000C943E000C943E0028
:100060000C943E000C943E0011241FBECFEFD8E04C
:10007000DEBFCDBF0E944B000C9456000C940000D4
:100080001F920F920FB60F9211242D9A0F900FBE50
:100090000F901F901895259A52985A9AE89A809135
:1000A00069008260809369007894FFCFF894FFCF55
:00000001FF
