:100000000C9434000C943E000C943E000C943E0082
:100010000C943E000C943E000C943E000C943E0068
:100020000C943E000C943E000C943E000C943E0058
:100030000C943E000C943E000C943E000C943E0048
:100040000C943E000C943E000C943E000C943E0038
:100050000C943E000C943E000C943E000C943E0028
:100060000C943E000C943E0011241FBECFEFD8E04C
:10007000DEBFCDBF0E9440000C940A020C94000029
:10008000CF93DF93CDB7DEB76597DEBFCDBF80E2FC
:1000900090E19C838B838FEF8D838D81482F880F18
:1000A000550B2B813C81429FC001439F900D529F75
:1000B000900D11249F838E8305C089819A810196BA
:1000C0009A83898329813A818E819F8128173907F4
:1000D000A4F384E290E024E230E0F9012081216081
:1000E000FC01208385E290E025E230E0F9013081D7
:1000F00021E02327FC01208380E090E0AEE7B3E419
:1001000088879987AA87BB8720E030E04AEF54E4CC
:10011000688579858A859B850E947501DC01CB0104
:100120008C879D87AE87BF8720E030E040E85FE3A3
:100130006C857D858E859F850E94EF0088232CF439
:1001400081E090E0998B888B3FC020E03FEF4FE744
:1001500057E46C857D858E859F850E9470011816F9
:100160004CF520E030E040E251E4688579858A85ED
:100170009B850E947501DC01CB01BC01CD010E9471
:10018000F400DC01CB01998B888B0FC088EC90E0E8
:100190009B8B8A8B8A899B890197F1F79B8B8A8B32
:1001A000888999890197998B888B88899989892B66
:1001B00069F714C06C857D858E859F850E94F4004B
:1001C000DC01CB01998B888B888999899D8B8C8BDD
:1001D0008C899D890197F1F79D8B8C8B83CF0E9431
:1001E000230108F481E008950E944F0188F09F5791
:1001F00098F0B92F9927B751B0F0E1F0660F771F4B
:10020000881F991F1AF0BA95C9F714C0B13091F040
:100210000E946901B1E008950C946901672F782F5D
:100220008827B85F39F0B93FCCF386957795679505
:10023000B395D9F73EF490958095709561957F4F71
:100240008F4F9F4F0895990F0008550FAA0BE0E8B4
:10025000FEEF16161706E807F907C0F01216130688
:10026000E407F50798F0621B730B840B950B39F4C8
:100270000A2661F0232B242B252B21F408950A262E
:1002800009F4A140A6958FEF811D811D089557FDAA
:100290009058440F551F59F05F3F71F04795880FF4
:1002A00097FB991F61F09F3F79F08795089512168B
:1002B00013061406551FF2CF4695F1DF08C0161637
:1002C00017061806991FF1CF8695710561050894E8
:1002D0000895E894BB2766277727CB0197F90895FF
:1002E0000E94230108F48FEF08950E9488010C9466
:1002F000F9010E94EB0138F00E94F20120F09523F1
:1003000011F00C94E2010C94E80111240C946A01A0
:100310000E94470170F3959FC1F3950F50E0551F60
:10032000629FF001729FBB27F00DB11D639FAA274A
:10033000F00DB11DAA1F649F6627B00DA11D661F99
:10034000829F2227B00DA11D621F739FB00DA11DBA
:10035000621F839FA00D611D221F749F3327A00D74
:10036000611D231F849F600D211D822F762F6A2F10
:1003700011249F5750409AF0F1F088234AF0EE0F75
:10038000FF1FBB1F661F771F881F91505040A9F7A2
:100390009E3F510580F00C94E2010C946A015F3F8E
:1003A000E4F3983ED4F3869577956795B795F795DE
:1003B000E7959F5FC1F7FE2B880F911D9695879556
:1003C00097F9089597F99F6780E870E060E00895D5
:1003D0009FEF80EC089500240A941616170618065D
:1003E0000906089500240A94121613061406050639
:1003F0000895092E0394000C11F4882352F0BB0FCA
:1004000040F4BF2B11F460FF04C06F5F7F4F8F4F2C
:080410009F4F0895F894FFCFFF
:00000001FF
